:020000040800F2
:10000000D04C00209D010008A50D0008E50A00085D
:10001000A10D0008350900083B1B00080000000086
:1000200000000000000000000000000005010008C2
:10003000390900080000000049010008B91500084E
:10004000B7010008B7010008B7010008B7010008B0
:10005000B7010008B7010008B7010008B7010008A0
:10006000B7010008B7010008B7010008B701000890
:10007000B7010008B7010008B7010008B701000880
:10008000B7010008B7010008B7010008B701000870
:10009000B7010008B7010008B7010008B701000860
:1000A000B7010008B7010008B7010008B701000850
:1000B000B7010008B7010008B7010008B701000840
:1000C000B7010008B7010008B7010008B701000830
:1000D000B701000835180008B7010008B70100088B
:1000E000B7010008B7010008B7010008DFF810D019
:1000F00000F00EFC004800475D1F0008AFF30080D1
:10010000D04C0020224B19680868B0E8F00F80F34B
:100110000988BFF36F8F4FF0000080F311884EF015
:100120000D0E70470000000006480068006880F36C
:10013000088862B661B6BFF34F8FBFF36F8F00DFE1
:1001400000BF00BF08ED00E0EFF30980BFF36F8F41
:100150000F4B1A6820E9F00F106008B54FF05000FF
:1001600080F31188BFF34F8FBFF36F8F02F066FFEC
:100170004FF0000080F31188BDE808401968086856
:10018000B0E8F00F80F30988BFF36F8F704700BFAE
:1001900030000020EFF305807047000006488047DC
:1001A00006480047FEE7FEE7FEE7FEE7FEE7FEE75C
:1001B000FEE7FEE7FEE7FEE725160008ED00000873
:1001C00040EA01039B0703D009E008C9121F08C0D9
:1001D000042AFAD203E011F8013B00F8013B521E59
:1001E000F9D27047F0B480EA0102D40F4200B2EBBA
:1001F000410F02D20246084611464A0042D0C30DC2
:10020000DDB2C1F3C752AD1A202D35DAC1F31601A4
:1002100041F4000204B15242C5F1200602FA06F18F
:100220002A411044B3EBD05F23D0C4B1012DA0EB21
:10023000C35009DCF0BC4FF0004202EAC352DBB20B
:1002400000F5000000F0C0BA400000F1807000EB43
:10025000C350A0F1807040EAD170490009E049081C
:1002600041EAC071A0EBC35000F50000400800EB6C
:10027000C350F0BC00F09FBA6142012202EB410181
:10028000001BF6E7F0BC704781F00041AAE780F060
:100290000040A7E780EA010210B502F000434000E9
:1002A00022D04A001FD0010E01EB1261C0F35600AC
:1002B000C2F3560240F4000042F40002A0FB022008
:1002C00000047F39140400D0401C50EA124001D4CD
:1002D0004000491EC2B20C0604EBD010401C40087E
:1002E000802A02D003E0002010BD20F00100002988
:1002F00000DA0020184310BD30B480EA010202F099
:10030000004530F0004221F0004013D090B1C30D01
:10031000D40DC2F31601C0F31600E41A41F4000133
:1003200040F400027D34914201D3641C00E0490096
:10033000002C02DA30BC002070474FF4000000238C
:10034000914201D3891A034340084FEA4101F7D192
:1003500051B1914202D14FF0004105E002D24FF07D
:10036000010101E06FF0010103EBC450284430BCEF
:1003700000F021BA2DE9FE4F804681EA0300C00F4C
:100380000C46009021F0004123F00045B8EB02003C
:10039000A94105D24046214690461C460B460246DE
:1003A00023F00040104347D0270DC7F30A00C3F3E2
:1003B0000A510290401A019040286BDAC3F31300EF
:1003C00040F4801B0098924620B10023D2EB030A30
:1003D00063EB0B0B01985946C0F14002504600F008
:1003E000B9F906460D4650465946019A00F0D1F932
:1003F00010EB08006141002487EA115284EAE77398
:100400001A4340D0009A62B3019A012A4FEA075278
:1004100015DC001B61EB02014FF0004202EA0752BB
:10042000CDE90042001C41F5801132462B4600F018
:1004300008FA03B0BDE8F08F40462146F9E7001BFB
:1004400061EB0201001C41F5801300185B4120188C
:10045000A2F5001747EB030140EAD570B6196D41CC
:1004600011E06D084FEA360645EAC0754FEA0752BB
:10047000001B61EB0201001C41F5801149084FEAA5
:1004800030000019514132462B4603B0BDE8F04F11
:1004900000F0C8B90098012240000023D0EB02020E
:1004A00063EBE073009821464FEAE074B8EB00007C
:1004B00061EB0401E9E783F000435BE781F0004171
:1004C00058E72DE9FE4F81EA030404F0004421F0CF
:1004D000004100944FF0000B23F0004350EA010468
:1004E0005ED052EA03045BD0C3F30A54C1F30A5549
:1004F0002C44A4F2F3340194A0FB0254C1F3130181
:1005000041F48011C3F3130343F4801301FB02444D
:1005100000FB034E840A970A44EA815447EA835752
:10052000A4FB076802958D0A05FB07854FEA932C0B
:1005300004FB0C542705029D4FEA065847EA16377C
:10054000B5EB08056EEB070C870E920E47EA811794
:1005500042EA8312A7FB0201B6EB0B0164EB000435
:100560002B0D43EA0C335E1844EB1C50DA4651461F
:10057000E7FB0201C5F313044FEA0B3343EA1453BC
:100580004FEA0432019C43EA0603A4F10C040294EE
:10059000009CCDE900B400F054F903B0BDE8F08F41
:1005A00000200146F9E72DE9F04D81EA030404F04B
:1005B000004B21F0004514464FF0000A23F00041A3
:1005C00050EA050220D054EA01021DD0C5F30A57B3
:1005D0000246C5F31303C1F31300C1F30A5640F4F6
:1005E000801543F48013A7EB0608101BD64608F2CB
:1005F000FD3873EB050002D308F1010801E0921801
:100600005B41B8F1000F03DA00200146BDE8F08D30
:1006100000204FF48011064684460EE0171B73EB52
:10062000050705D3121B63EB050306434CEA010CD7
:1006300049084FEA300092185B4150EA0107EDD1BA
:1006400052EA030012D082EA040083EA050108435B
:1006500005D0101BAB4106D20122002306E0002288
:100660004FF0004302E06FF0010253101AEB060056
:100670004CEB085110EB0A0041EB0B01BDE8F04DCB
:1006800000F0D0B896230022114600F09DB80EB5B8
:1006900040F2334102910021CDE900110A460B4698
:1006A00000F0CFF803B000BD20F00040C10DC0F352
:1006B000160040F400007F2901DA002070479629D7
:1006C00003DCC1F19601C8407047963988407047F5
:1006D000C1F30A5210B5C1F3130140F2FF3341F4E4
:1006E00080119A4201DA002010BD40F233439A4251
:1006F000A2F2334203DC524200F03BF810BD9040BE
:1007000010BD00F0004230F000400AD0C10D01F5EC
:100710006071C0F3160042EA0151C208400711435C
:10072000704700200146704730B50B460146002057
:100730002022012409E021FA02F59D4205D303FAA3
:1007400002F5491B04FA02F52844151EA2F1010224
:10075000F1DC30BD202A04DB203A00FA02F100204F
:1007600070479140C2F1200320FA03F319439040EF
:100770007047202A04DB203A21FA02F0002170475A
:1007800021FA02F3D040C2F12002914008431946F9
:100790007047202A06DBCB17203A41FA02F043EAE1
:1007A000E07306E041FA02F3D040C2F1200291402A
:1007B0000843194670470029A8BF7047401C4900EC
:1007C00008BF20F00100704710B4B0FA80FC00FAB6
:1007D0000CF050EA010404BF10BC704749B1CCF1E1
:1007E000200421FA04F411FA0CF118BF012121436D
:1007F0000843A3EB0C01CB1D4FEA00614FEA102028
:1008000042BF002010BC704700EBC35010440029C9
:10081000A4BF10BC7047401C490008BF20F0010075
:1008200010BC704710B5141E73F1000408DA401CA8
:1008300041F1000192185B411A4301D120F00100FF
:1008400010BD2DE9F04D92469B4611B1B1FA81F2EF
:1008500002E0B0FA80F220329046FFF77BFF0446B8
:100860000F4640EA0A0041EA0B0153465A46084344
:1008700013D0114653EA010019D0C8F14002504686
:10088000FFF777FF05460E46504659464246FFF7AA
:1008900061FF084305D0012004E020463946BDE849
:1008A000F08D0020054346EAE0762C4337430A9852
:1008B0006305E40AA0EB08000022FD0A44EA47545D
:1008C0000A3002D500200146E9E701051019694107
:1008D000DDE9084500196941BDE8F04DA2E70000D7
:1008E00030B5041E71F1000404DB4FF000444042B7
:1008F00064EB0101141E73F1000405DB1C464FF08C
:100900000043524263EB0403994208BF904230BD5A
:10091000064C074D06E0E06840F0010394E807004C
:1009200098471034AC42F6D3FFF7E4FB8C3900084B
:10093000AC39000800BFFEE77047000070B5044600
:1009400002F062FE012810D00B480088844206D3D2
:1009500009480088B4FBF0F5284602F0FFF9064884
:100960000088B4FBF0F100FB11444FF47A7104FBF2
:1009700001F000F003F870BD2A00002070B50346B6
:1009800000224FF0E02675690D4E367803FB06F421
:100990004FF0E026B16910E04FF0E026B0698842E0
:1009A0000BD0884202D20E1A324402E02E1A0E44B4
:1009B00032440146A24200D300E0EDE700BF70BD23
:1009C000280000202DE9F0410246002500260020E5
:1009D00000230024002791F803C00CF00F0591F8C4
:1009E00003C00CF0100CBCF1000F03D091F802C052
:1009F0004CEA050591F800C0BCF1000F31D0146835
:100A000000202BE04FF0010C0CFA00F3B1F800C00D
:100A10000CEA03069E4220D183004FF00F0C0CFA23
:100A200003F7BC4305FA03FC4CEA040491F803C045
:100A3000BCF1280F06D14FF0010C0CFA00FCC2F8F3
:100A400014C00AE091F803C0BCF1480F05D14FF083
:100A5000010C0CFA00FCC2F810C0401C0828D1D3CD
:100A60001460B1F800C0BCF1FF0F34DD5468002001
:100A70002EE000F1080C4FF0010808FA0CF3B1F871
:100A800000C00CEA03069E4221D183004FF00F0CF8
:100A90000CFA03F7BC4305FA03FC4CEA040491F892
:100AA00003C0BCF1280F05D100F1080C08FA0CF8BE
:100AB000C2F8148091F803C0BCF1480F07D100F1CF
:100AC000080C4FF0010808FA0CF8C2F81080401C1E
:100AD0000828CED35460BDE8F0810AB1016100E07E
:100AE0004161704700BFFEE710B500200F49086064
:100AF0000F48006820F470400D49086008460068FF
:100B000040F44050086000200A49C1F8AC010220BE
:100B1000FFF734FF0120054908600220FFF72EFF90
:100B200000200449C1F8B00110BD0000B00121420D
:100B3000040801400000214208B50121042000F012
:100B4000EDFB4FF4C050ADF8000010208DF803000D
:100B500003208DF8020069460448FFF733FF0120A7
:100B6000034908600349C1F8AC0108BD0008014011
:100B7000B00121420000214210B500200F49086059
:100B80000F48006820F470400D490860084600686E
:100B900040F44050086001200A49C1F8AC0102202D
:100BA000FFF7ECFE0120054908600220FFF7E6FE92
:100BB00000200449C1F8B00110BD0000B00121427D
:100BC000040801400000214270B505460024174882
:100BD000006820F47040154908600846006840F439
:100BE00000400860002616E000201149086002203D
:100BF000FFF7C4FE01200F49C1F8B0016006040EE2
:100C00000B488438006808B1601CC4B20120FFF7AB
:100C1000B5FE701CC6B2082EE6DB15B9FFF7ACFFB7
:100C200001E0FFF761FF204670BD000004080140AD
:100C3000B00121420000214270B504461548006809
:100C400020F47040134908600846006840F44050A2
:100C50000860002010490860002517E0E0090E49EF
:100C6000091F08606006040E0220FFF787FE0120BE
:100C70000A49C1F8B0010220FFF780FE00200649B2
:100C800008600220FFF77AFE681CC5B2082DE5DB7C
:100C900070BD000004080140B00121420000214263
:100CA00010B50F48006820F470400D4908600846F0
:100CB000006840F44050086001200A4908600A4971
:100CC000C1F8B0010420FFF759FE00200549086073
:100CD0000420FFF753FE00200349C1F8B00110BD06
:100CE00004080140AC0121420000214210B50F4828
:100CF000006820F470400D4908600846006840F420
:100D00004050086000200A4908600A49C1F8AC0157
:100D10000420FFF733FE0120054908600549C1F8AA
:100D2000AC010420FFF72AFE10BD000004080140BA
:100D3000B00121420000214210B50024154800688E
:100D400020F47040134908600846006840F40040F1
:100D500008600120104908600220FFF70FFE012003
:100D60000E49C1F8B0010220FFF708FE07E0601C41
:100D7000C4B2FA2C03DDFFF7B9FF012010BD06480D
:100D8000803800680028F2D10349091D086000BFBF
:100D9000F4E7000004080140AC01214200002142B8
:100DA00000BFFEE77047000070B5002100230F224E
:100DB000C47804B3154C246804F4E064C4F5E0641A
:100DC000210AC1F10403CA40447804FA03F184788B
:100DD0001440214309010E4C0678A155047804F013
:100DE0001F050124AC4005786D11AD0005F1E0252B
:100DF000C5F8004109E0047804F01F050124AC4067
:100E0000044D0678761145F8264070BD0CED00E0E3
:100E100000E400E080E100E002490143024A116081
:100E2000704700000000FA050CED00E070B50024EA
:100E30000EE00021204600F0E6F8002504E0002046
:100E400000F002F9681CC5B2802DF8DB601CC4B24A
:100E5000082CEEDB70BD000008B50121082000F071
:100E60005DFA14208DF8030003208DF802004FF482
:100E70008070ADF8000069460A48FFF7A3FD4FF403
:100E80000070ADF8000069460648FFF79BFD01229F
:100E900011020448FFF721FE012251020148FFF729
:100EA0001CFE08BD000C014070B50546002415E08D
:100EB0008020204100EA05024FF400710E48FFF740
:100EC0000CFE012211020C48FFF707FE00224FF42E
:100ED00080710948FFF701FE601CC4B2082CE7DBF3
:100EE000012211020448FFF7F8FD00224FF480713F
:100EF0000148FFF7F2FD70BD000C014010B5012262
:100F000051020A48FFF7E9FD012211020748FFF7E5
:100F1000E4FD00224FF400710448FFF7DEFD0022DB
:100F20004FF480710148FFF7D8FD10BD000C01405F
:100F300010B500224FF400710648FFF7CEFD0122E4
:100F400011020448FFF7C9FD012251020148FFF7D1
:100F5000C4FD10BD000C014070B5002406E0002562
:100F600000E06D1CB5F57A7FFBD3641CB4F57A7F85
:100F7000F5D3FFF771FFAE2000F056F8D52000F052
:100F800053F8802000F050F8A82000F04DF83F20E2
:100F900000F04AF8D32000F047F8002000F044F8B1
:100FA000402000F041F8A12000F03EF8C82000F0F9
:100FB0003BF8DA2000F038F8122000F035F88120F4
:100FC00000F032F8CF2000F02FF8D92000F02CF8F4
:100FD000F12000F029F8DB2000F026F8302000F0A6
:100FE00023F8A42000F020F8A62000F01DF88D20A2
:100FF00000F01AF8142000F017F8AF2000F014F8F1
:10100000FFF714FF70BD70B505460C4645F0B00003
:1010100000F00AF8102141EA141000F005F804F07D
:101020000F0000F001F870BD10B50446FFF766FF31
:101030007820FFF739FF0020FFF736FF2046FFF743
:1010400033FFFFF775FF10BD10B50446FFF756FFDD
:101050007820FFF729FF4020FFF726FF2046FFF703
:1010600023FFFFF765FF10BD2DE9F84F83468A4641
:10107000482000F0A9FA00200090FFF75DFD002154
:10108000084600F091F8584600F0A6F85046FFF7E1
:10109000FEFA80464FF03332304BFFF712FA064625
:1010A00000222F4BFFF766F90446FFF711FB009073
:1010B00000210846009A00F0E5F800210120009A7E
:1010C00000F0E0F800210220009A00F0DBF8002197
:1010D0000320009A00F0D6F800210420009A00F0C6
:1010E000D1F800210520009A00F0CCF8002106205C
:1010F000009A00F0C7F800210720009A00F0C2F81B
:1011000000210820009A00F0BDF800210920009A73
:1011100000F0B8F800210A20009A00F0B3F800218E
:101120000B20009A00F0AEF800210C20009A00F08D
:10113000A9F800210D20009A00F0A4F800210E204B
:10114000009A00F09FF800210F20009A00F09AF812
:101150006420FFF7F3FBBDE8F88F00003333034052
:101160000020624070B50446FFF79AFD8020FFF72B
:1011700063FDFFF701FD2046FFF75EFDFFF7FCFC76
:10118000FFF7B4FD0A20FFF7F9FBFFF789FD812087
:10119000FFF752FDFFF7F0FC0020FFF715FD0546B5
:1011A000FFF7A4FD284670BD70B505460C46FFF755
:1011B00077FD8020FFF740FDFFF7DEFC2846FFF7B4
:1011C0003BFDFFF7D9FC2046FFF736FDFFF7D4FCC7
:1011D000FFF78CFD70BD00002DE9FC5F8346002405
:1011E000244D0022244B20462946FFF7DCF9044613
:1011F0000D465846FFF785FA064632460B4620460E
:101200002946FFF7D0F904460D4600221B4B204625
:101210002946FFF750F904460D460022184B204698
:101220002946FFF7A7F8804600F086FD0646FFF73F
:101230004FFAC0B201900020FFF794FF82460AF0F7
:101240007F0040F01000009000200099FFF7ACFFF5
:10125000FE200199FFF7A8FF51460020FFF7A4FFE9
:101260000520FFF76BFB4AF0A1010020FFF79CFF70
:10127000BDE8FC9F84D777410000B0400000F03FFC
:101280000000E03F70B506460C461546FFF708FD26
:101290008020FFF7D1FCFFF74FFDB100891DC8B2D8
:1012A000FFF7CAFCFFF748FDE0B2FFF7C5FCFFF708
:1012B00043FDC4F30720FFF7BFFCFFF73DFDE8B295
:1012C000FFF7BAFCFFF738FDC5F30720FFF7B4FCC2
:1012D000FFF732FDFFF70AFD70BD10B50446214649
:1012E0004FF0804000F013FA10BD10B504462146BF
:1012F0004FF0804000F00DFA10BD000029B1064A01
:10130000D2690243044BDA6104E0034AD2698243A2
:10131000014BDA61704700000010024029B1064A13
:1013200092690243044B9A6104E0034A9269824342
:10133000014B9A61704700000010024030B5002157
:101340000022002400232D4D6D6805F00C0121B111
:10135000042905D0082923D105E0294D056022E0A4
:10136000274D05601FE0254D6D6805F47012234D73
:101370006D6805F48034022505EB92421CB9214DBD
:10138000554305600BE01D4D6D6805F400351DB13A
:101390001C4D5543056002E0194D5543056002E0C0
:1013A000174D056000BF00BF144D6D6805F0F001DA
:1013B0000909154D6B5C0568DD4045600F4D6D6892
:1013C00005F4E061090A104D6B5C4568DD408560FD
:1013D0000A4D6D6805F46051C90A0B4D6B5C456898
:1013E000DD40C560054D6D6805F44041890B074D32
:1013F0006B5CC568B5FBF3F5056130BD00100240BC
:1014000000127A0000093D000000002010000020BA
:101410002DE9F04104460A492046FEF76DFF80465B
:101420000849FEF737FF07460749FEF7DBFE064689
:10143000FFF73AF985B22846FFF74FFFBDE8F08184
:10144000000034430000FA440000FA432DE9F04163
:1014500004460A492046FEF74FFF80460849FEF73A
:1014600019FF07460749FEF7BDFE0646FFF71CF9C0
:1014700085B22846FFF739FFBDE8F081000034430C
:101480000000FA440000FA4310B500F001F810BD66
:101490000CB50020019000903348006840F4803083
:1014A0003149086000BF3048006800F40030009007
:1014B0000198401C0190009818B90198B0F5A06FF0
:1014C000F1D12948006800F4003010B101200090EB
:1014D00001E0002000900098012843D123480068D3
:1014E00040F01000214908600846006820F0030021
:1014F00008600846006840F0020008601A4840682A
:10150000194948600846406848600846406840F409
:10151000806048600846406820F47C1048600846B7
:10152000406840F4E81048600846006840F0807069
:10153000086000BF0C48006800F000700028F9D077
:101540000948406820F003000749486008464068A1
:1015500040F00200486000BF0348406800F00C0003
:101560000828F9D10CBD0000001002400020024004
:10157000002005E00449095C044A1154411CC8B22A
:101580001028F7DB704700007C390008BC480020B9
:10159000042808D14FF0E021096941F004014FF01F
:1015A000E022116107E04FF0E021096921F0040118
:1015B0004FF0E0221161704710B502F025F80128C4
:1015C00001D001F0DFFD10BD70B505460420FFF726
:1015D000DFFF104800681049B0FBF1F00F490870B8
:1015E0000C4800680C49B0FBF1F44FF47A704443A6
:1015F00001200B4908804FF0E020006940F0020014
:101600004FF0E021086108464461006940F00100A4
:10161000086170BD1400002040420F002800002027
:101620002A00002010B51348006840F0010011495D
:10163000086008464068104908400E49486008465E
:1016400000680E4908400B4908600846006820F40D
:10165000802008600846406820F4FE0048604FF48F
:101660001F008860FFF710FF4FF00060044908601A
:1016700010BD0000001002400000FFF8FFFFF6FE62
:1016800008ED00E010B50121880700F020F80128DE
:1016900009D10021800700F00EF80121880700F031
:1016A00007F8012010BD0020FCE7CA430282704702
:1016B000CA430282704721B1028842F001020280CF
:1016C00004E002884FF6FE731A400280704730B57E
:1016D0000246002000230024158A05EA01039589AB
:1016E00005EA010413B10CB1012000E0002030BD77
:1016F0001AB183890B43838102E083898B43838101
:10170000704701894FF6F872114001817047818658
:101710007047018770470000002202881D4B9842E5
:101720000ED01D4B98420BD0B0F1804F08D01B4B10
:10173000984205D01A4B984202D01A4B984204D1D5
:101740004FF68F731A404B881A43174B984207D0B5
:10175000164B984204D04FF6FF431A40CB881A43E9
:1017600002808B8883850B8803850A4B98420BD0B7
:10177000094B984208D00E4B984205D00D4B984229
:1017800002D00D4B984201D10B7A0386012383824C
:1017900070470000002C014000340140000400406C
:1017A00000080040000C0040001000400014004001
:1017B0000040014000440140004801401FB50121A4
:1017C0000846FFF79BFD4FF08040FFF79AFF00208F
:1017D000ADF80A00ADF8060040F69F70ADF80800BD
:1017E00041F61F40ADF8040000208DF80C0001A95F
:1017F0004FF08040FFF790FF01218807FFF755FF6A
:10180000012211469007FFF773FF4FF4A060FFF726
:1018100003FB1C208DF8000001208DF8030002203E
:101820008DF8020001208DF8010001218007FFF7EB
:1018300042FF1FBD10B540F225511D4800F0B8F819
:1018400010B31B4800F070F9C4B21A48008800F4C5
:101850000040C8B91748008800F4804060B10A2CE5
:1018600003D000201349088020E01248008840F48B
:1018700000401049088019E00D2C06D10D48008861
:1018800040F480400B49088010E00A480088C0F30B
:101890000D0009490C5407480088401C0549088080
:1018A00008460088C72801DD0020088010BD000020
:1018B000003801402C0000201001002010B586B037
:1018C000044601210420FFF729FD01218803FFF7C9
:1018D00025FD4FF40070ADF8140003208DF81600BC
:1018E00018208DF8170005A91E48FFF76BF84FF474
:1018F0008060ADF8140004208DF8170005A9194880
:10190000FFF760F801940020ADF80800ADF80A0078
:10191000ADF80C00ADF810000C20ADF80E0001A9D8
:10192000114800F095F801210F4800F028F84021F7
:101930000D4800F01BF8012240F225510A4800F042
:1019400061F825208DF8000003208DF801008DF846
:10195000020001208DF803006846FFF725FA06B063
:1019600010BD0000000801400038014001F4007281
:10197000B2F5007F00D100BFCA430280704721B199
:10198000828942F40052828104E082894DF6FF731D
:101990001A408281704702460020B1F5007F00D1D5
:1019A00000BF13880B400BB1012000E000207047FE
:1019B00070B50246002400230025002040F66A1678
:1019C000B14200D100BFC1F3421501F01F0301264F
:1019D00006FA03F3012D02D19689334006E0022D69
:1019E00002D1168A334001E0968A33400C12012658
:1019F00006FA04F41688344013B10CB1012000E05B
:101A0000002070BDF0B5034600240026002500200C
:101A100040F66A17B94200D100BF1846C1F342141C
:101A200001F01F06012707FA06F5012C01D10C3041
:101A300004E0022C01D1103000E014301AB1076824
:101A40002F43076002E00768AF430760F0BD000066
:101A50002DE9F04786B005460E460024A24600BF99
:101A6000A1460027B08900B100BF2F462C8A4CF652
:101A7000FF700440F08804432C82AC894EF6F310CA
:101A80000440B08831890843718908430443AC811C
:101A9000AC8A4FF6FF400440B0890443AC8201A8F1
:101AA000FFF74CFC1F48874202D1DDF810A001E08F
:101AB000DDF80CA0A88900F4004040B10AEBCA0090
:101AC00000EB0A1031684900B0FBF1F807E00AEBBF
:101AD000CA0000EB0A1031688900B0FBF1F86420FD
:101AE000B8FBF0F004012009642101FB1089A889EA
:101AF00000F4004040B1322000EBC900B0FBF1F02F
:101B000000F00700044308E0322000EB09106421D4
:101B1000B0FBF1F000F00F0004432C8106B0BDE8EB
:101B2000F08700000038014001468888C0F30800B3
:101B30007047C1F308028280704700BFFEE70000D3
:101B40000FB4054B10B503A9044A029800F018F829
:101B500010BC5DF814FB0000151E00080C010020ED
:101B600002E008C8121F08C1002AFAD17047704766
:101B7000002001E001C1121F002AFBD170470000C4
:101B80002DE9FF4F8BB09A460F460546002606E02A
:101B900025280BD052460D9990476D1C761C28784D
:101BA0000028F5D10FB03046BDE8F08F0024A046E4
:101BB0000122604900E0044315F8013F203B02FA8E
:101BC00003F00842F7D128782E2817D115F8010F15
:101BD00044F004042A280ED06FF02F022878A0F1D8
:101BE000300109290AD808EB880102EB410100EB1A
:101BF00001086D1CF2E757F8048B6D1C28786928E2
:101C00003ED006DC0028CDD063280BD0642804D158
:101C100036E0732810D075284BD052460D99904766
:101C2000761C85E017F8040B8DF8000000208DF875
:101C30000100E946012003E057F8049B4FF0FF3014
:101C400061074FF0000401D40AE0641C44450DDA3A
:101C50008442FADB19F804100029F6D106E0641C6E
:101C60008442FCDB19F804100029F8D1264404E072
:101C700019F8010B52460D999047641EF8D257E0AF
:101C800001CF4FF00A0B002802DA40422D2102E07A
:101C9000210504D52B218DF82410012103E0E10753
:101CA00005D02021F7E70DF1200908910CE0002173
:101CB000F9E701CF4FF00A0BF9E75946FEF734FD7B
:101CC00001F1300209F8012D0028F6D1ADEB090031
:101CD00000F1200B600701D44FF00108D84502DD68
:101CE000A8EB0B0000E000208046002406E009A8D5
:101CF0005246005D0D999047641C761C08988442FA
:101D0000F5DB04E0302052460D999047761CB8F17F
:101D10000001A8F10108F5DC05E019F8010B5246B5
:101D20000D999047761CBBF10001ABF1010BF4DC7F
:101D30006D1C34E7092801002DE9F041C1F30A5276
:101D4000A2F2FF362F4A304B0D460446142E2FDAEE
:101D5000002E12DAFEF70EFB00221346FEF7C0FD3E
:101D60004CD2002DA4BF0024254647DA25F00040C0
:101D7000204318BF254D41D018E0DFF894C02CFA5D
:101D800006F705EA070C5CEA040C08BFBDE8F08121
:101D9000FEF7F0FA00221346FEF7A2FD2ED2002D28
:101DA00003DA4FF48010F0400544BD43002425E0E1
:101DB000332EC8BFBDE8F081A6F1140C4FF0FF37F9
:101DC00027FA0CF73C4208BFBDE8F081FEF776FB2E
:101DD00000221346FEF784FD10D2002D0DDA142EDA
:101DE00008BF6D1C09D0C6F13400012101FA00F0D2
:101DF0002044A04238BF6D1C0446BC4329462046FF
:101E0000BDE8F0819C7500883CE4377E0000F0BF9F
:101E1000FFFF0F0070B504460D46E1B20548FFF71D
:101E200088FE00BF80210348FFF7B5FD0028F9D0E8
:101E3000204670BD0038014040E000235A1E19467C
:101E40001F48006801F0B8F9012834D1FFF7B6FC4B
:101E500012E01C48C07B1E38C1B20F2000F026FEE5
:101E60001848407B0A38C1B20D2000F01FFEFFF772
:101E700009FC012800D100E0EBE700BFFFF79EFC62
:101E800010E01048C17B0F2000F010FE0D48407B91
:101E90001E30C1B20D2000F009FEFFF7F3FB012850
:101EA00000D100E0EDE700BF00231A4619460448C0
:101EB000006801F057FA012000F050FFBDE7000074
:101EC000E8000020BC480020642000F047FF40E00C
:101ED00000235A1E19461F48006801F06DF90128B9
:101EE00034D1FFF76BFC12E01B48807B1E30C1B27F
:101EF0000E2000F0DBFD1848007B0A30C1B20C2038
:101F000000F0D4FDFFF7BEFB012800D100E0EBE7B5
:101F100000BFFFF753FC10E00F48817B0E2000F05C
:101F2000C5FD0D48007B1E38C1B20C2000F0BEFD7F
:101F3000FFF7A8FB012800D100E0EDE700BF002378
:101F40001A4619460348006801F00CFA012000F017
:101F500005FFBDE7E8000020BC4800201CB5482074
:101F6000FFF732FBFEF7F8FFB4213248FFF77CF8A9
:101F70004FF44070FEF750FF4FF4E130FFF79EFC46
:101F8000FFF7F6FAFFF71AFC06E000F0B3FDFFF7E3
:101F900079FB012800D100E0F7E700BF40F2DC50F8
:101FA000FEF7CCFC00F0F8FD2348012100234A0293
:101FB000CDE9001021A1244801F0F6FA23480121BF
:101FC00000234A02CDE9001021A1244801F0ECFAD7
:101FD0002348012100234A02CDE9001021A1244811
:101FE00001F0E2FA2348012100234A02CDE9001062
:101FF00021A1254801F0D8FA2448012100230A0232
:10200000CDE9001022A1254801F0CEFA2448012193
:1020100000230A02CDE9001022A1254801F0C4FAEC
:1020200000F0B2FF2348006800F0D2FE00F0F6FD99
:1020300000BFFEE700004842F000002066726F6EAD
:10204000745F6C6566740000391E0008F40000209F
:1020500066726F6E745F726967687400C91E0008EB
:10206000F80000206D6964646C655F6C65667400DF
:10207000B9200008FC0000206D6964646C655F7223
:1020800069676874000000004D210008000100200D
:10209000726561725F6C6566740000007D290008DE
:1020A00004010020726561725F72696768740000E4
:1020B000152A0008EC000020C82000F04FFE40E088
:1020C00000235A1E19461F48006801F075F80128C0
:1020D00034D1FFF773FB12E01B48407A1E38C1B2BF
:1020E000092000F0E3FC1848C07A0A38C1B20B207E
:1020F00000F0DCFCFFF7C6FA012800D100E0EBE7B6
:1021000000BFFFF75BFB10E00F48417A092000F0A9
:10211000CDFC0D48C07A1430C1B20B2000F0C6FCD3
:10212000FFF7B0FA012800D100E0EDE700BF00237F
:102130001A4619460348006801F014F9012000F01E
:102140000DFEBDE7E8000020BC4800204FF496706B
:1021500000F004FE40E000235A1E19461F480068A4
:1021600001F02AF8012834D1FFF728FB12E01C48BF
:10217000007A1E30C1B2082000F098FC1848807A1E
:102180001430C1B20A2000F091FCFFF77BFA01285D
:1021900000D100E0EBE700BFFFF710FB10E01048B4
:1021A000017A082000F082FC0D48807A1438C1B210
:1021B0000A2000F07BFCFFF765FA012800D100E05F
:1021C000EDE700BF00231A4619460448006801F0F5
:1021D000C9F8012000F0C2FDBDE70000E8000020C2
:1021E000BC48002070B505460C490878FEF74AFA4D
:1021F0000446FFF70DF909494878FEF743FA04460B
:10220000FFF724F9002406E0295D054A105D00F07F
:102210004DFC601CC4B2102CF6DB70BD9400002095
:102220005C3900082DE9F04105460E461C48076858
:102230001C480068001D00F065FC50B91948006892
:1022400090F82C10012088401749096881431648EE
:102250000160681C38B936B112480168091D13487D
:1022600000F08EFC1AE07C190E4800684460BC4205
:1022700007D20C480168091D0D48006800F066FC93
:102280000CE008480168091D0A48006800F05EFC7F
:1022900009480068844201D207480460BDE8F08123
:1022A000440000203000002048000020A804002046
:1022B00038000020340000206000002010B50446E3
:1022C00000F06AFC23480068401C2249086022484C
:1022D000006840B9204804600846006801280DD114
:1022E00000F07EF90AE01D48006838B91A48006815
:1022F000C06AE16A884201D817480460184800683B
:10230000401C1749086094F82C100120884015499A
:102310000968084313490860E16A01EB8101124A28
:1023200002EB8100211D00F02BFC00F077FC0B4834
:10233000006868B108480068C06AE16A884207D24C
:102340004FF0805009490860BFF34F8FBFF36F8F84
:1023500010BD000040000020300000204C00002094
:102360005C00002048000020D801002004ED00E0BF
:1023700070B523E000F05AFE1348006808B9012048
:1023800000E00020054601F059FABDB900F004FC58
:102390000D48C068C468201D00F0B4FB0B480068FD
:1023A000401E0A4908600A480068401E0849086043
:1023B00000F034FC204600F057F800BF04480068E5
:1023C0000028D7D170BD00009404002040000020F8
:1023D0003C00002070B504460D46206C70B1216CA5
:1023E000E0680844E0606168E068884201D32068E2
:1023F000E0602846226CE168FDF7E2FE70BD2DE941
:10240000F04104460F4615464FF00008A66B206CBD
:1024100028B37DB93946226CA068FDF7D1FE216C46
:10242000A0680844A060D4E90110884217D320684E
:10243000A06014E03946226CE068FDF7C1FE216C13
:10244000E068401AE0602168E068884203D2216CAD
:102450006068401AE060022D01D106B1761E701C42
:10246000A0634046BDE8F08110B50446206B00F043
:102470000BFC204600F008FC10BD000030B54FF406
:102480008843174800F007042CB1C01D20F0070056
:10249000134C041B1B1B0246124C22600024114DDE
:1024A0006C60D018083820F007000F4C2060002422
:1024B0000D4D2D686C600C4D2D682C601146441A32
:1024C0004C60094C24680C60084D4C682C60084D29
:1024D0004C682C604FF00044064D2C6030BD00006D
:1024E000BC0400206C000020740000207C00002050
:1024F000780000208000002000BFFFF739FF064869
:1025000000680128F9D94FF0805004490860BFF3F2
:102510004F8FBFF36F8FF0E7D801002004ED00E08C
:102520002DE9FF5F81460E469246DDE90E7B109C49
:10253000AAF10100216B01EB800828F0070808F0E0
:10254000070008B9012000E0002028B940F22B3232
:102550001AA11FA0FFF7F4FA002507E0715D04F14E
:1025600034004155705D00B902E06D1C102DF5D3AB
:1025700000BF002143200155202F00D31F27E76211
:10258000201D00F0E0FA04F1180000F0DCFA2461EC
:10259000C7F12000A06164620020606484F84800F4
:1025A00049464046039A00F0D7F92060BBF1000F7E
:1025B00001D0CBF80040BDE8FF9F00004672656582
:1025C00052544F535C7461736B732E6300000000B0
:1025D0004572726F723A25732C25640D0A00000053
:1025E00010B5002407E004EB84010F4A02EB8100E0
:1025F00000F09CFA641C202CF5D30C4800F096FAED
:102600000B4800F093FA0B4800F090FA0A4800F0EB
:102610008DFA0A4800F08AFA04480949086004481B
:102620000849086010BD0000D801002058040020AF
:102630006C0400208004002094040020A8040020E2
:10264000340000203800002010B50146164800E094
:10265000006803688B42FBD30246436813448B42F5
:1026600004D143684C682344436001460A464B68E2
:1026700013440468A34211D10C4C03682468A3429C
:1026800008D04B680468646823444B6003681B6887
:102690000B6005E0054B1B680B6001E003680B60F5
:1026A000884200D0016010BD6C0000207400002042
:1026B00070B5054600F070FAA86B08B9012400E077
:1026C000002400F0ABFA204670BD70B5054600F05E
:1026D00063FAA86BE96B884201D1012400E0002471
:1026E00000F09CFA204670BD0A490968096809B9DA
:1026F000012100E0002121B14FF0FF31064A1160B5
:1027000006E004490968C968C868034A416811605D
:102710007047000034000020600000200B48006873
:10272000401C08B9012000E0002020B9F42208A1D3
:1027300011A0FFF705FA00BF502080F31188BFF306
:102740004F8FBFF36F8F00BF00BFFEE784000020F4
:102750004672656552544F535C706F727461626C5F
:10276000655C525644535C41524D5F434D335C703F
:102770006F72742E630000004572726F723A257397
:102780002C25640D0A00000070B5044600F004FA20
:1027900094F9455010E0606A08B9012000E000207B
:1027A00038B904F1240000F0EFFF18B100F096FBF7
:1027B00000E003E0681E45B2002DECDC00BFFF2006
:1027C00084F8450000F02AFA00F0E6F994F9445044
:1027D00010E0206908B9012000E0002048B904F1A8
:1027E000100000F0D1FF08B100F078FB681E45B280
:1027F00000E001E0002DECDC00BFFF2084F8440085
:1028000000F00CFA70BD00002DE9F04104464FF0D5
:10281000000800F00BFC3E48006808B9FFF72EFEE8
:102820003C480068204000285FD1A4B1083404F07F
:10283000070080B104F00700C0F10800044404F070
:10284000070008B9012000E0002020B9BF2232A112
:102850003AA0FFF775F9002C47D03C480068844245
:1028600043D83B4E3046056801E02E462D68686827
:10287000A04202D228680028F7D125480068854286
:1028800033D0306800F10808286830606868001BA1
:10289000102813D92F1907F0070008B9012000E00C
:1028A000002020B9EC221CA124A0FFF749F9686898
:1028B000001B78606C603846FFF7C6FE23496868E5
:1028C0000968081A21490860084600682149096812
:1028D000884203D21D4800681E4908600D49686897
:1028E0000968084368600020286000F0A7FF08F02E
:1028F000070008B9012000E0002028B94FF49672C3
:1029000005A10EA0FFF71CF94046BDE8F0810000CC
:1029100074000020800000204672656552544F53B9
:102920005C706F727461626C655C4D656D4D616E5B
:10293000675C686561705F342E6300004572726F7A
:10294000723A25732C25640D0A00000078000020DF
:102950006C0000207C000020001F4FF0807303609B
:10296000001F21F001030360001F034B03601438B4
:1029700002602038704700001D2700084FF4C8701F
:1029800000F0ECF940E000235A1E19461F48006889
:1029900000F012FC012834D1FEF710FF12E01C48B1
:1029A000C0781E38C1B2032000F080F81848407982
:1029B0001438C1B2052000F079F8FEF763FE012853
:1029C00000D100E0EBE700BFFEF7F8FE10E0104892
:1029D000C178032000F06AF80D4840791430C1B284
:1029E000052000F063F8FEF74DFE012800D100E05D
:1029F000EDE700BF00231A4619460448006800F0BE
:102A0000B1FC012000F0AAF9BDE70000E8000020B9
:102A1000BC4800204FF4FA7000F0A0F940E0002319
:102A20005A1E19461F48006800F0C6FB012834D121
:102A3000FEF7C4FE12E01C4880781E30C1B20220AE
:102A400000F034F8184800791430C1B2042000F0C6
:102A50002DF8FEF717FE012800D100E0EBE700BFDC
:102A6000FEF7ACFE10E010488178022000F01EF85E
:102A70000D4800791438C1B2042000F017F8FEF7B1
:102A800001FE012800D100E0EDE700BF00231A4657
:102A900019460448006800F065FC012000F05EF96A
:102AA000BDE70000E8000020BC4800202DE9F84FF9
:102AB00083468A46002000905046FDF7E8FD804698
:102AC000094A0A4BFDF7FDFC06460022084BFDF7BC
:102AD00051FC0446FDF7FCFD009000215846009A89
:102AE000FEF7D0FBBDE8F88F9A9999999999014022
:102AF00000C0634010B50248FFF774FB10BD000032
:102B0000BC48002001460A69D1E901309860D1E94A
:102B1000010358605068884201D1886850600020E5
:102B200008611068401E10601068704700F10801CD
:102B300041604FF0FF31816000F10801C160016127
:102B400000210160704700210161704710B5024605
:102B50000B685C1C0CB9106907E002F1080000E08A
:102B60004068446824689C42FAD944684C604C68C8
:102B7000A160886041600A611468641C146010BD23
:102B800042684A6093688B609368596091600861FD
:102B900003685B1C0360704710B500BF502080F3D2
:102BA0001188BFF34F8FBFF36F8F00BF0B480068D2
:102BB000401C0A4908600846006801280DD10848F1
:102BC0000068C0B208B9012000E0002028B94FF425
:102BD000BD7204A10DA0FEF7B3FF10BD840000205C
:102BE00004ED00E04672656552544F535C706F729D
:102BF0007461626C655C525644535C41524D5F4354
:102C00004D335C706F72742E630000004572726FFA
:102C1000723A25732C25640D0A00000010B50B488C
:102C2000006828B940F2811209A113A0FEF788FFBD
:102C300006480068401E054908600846006820B93B
:102C4000002080F3118800BF00BF10BD8400002069
:102C50004672656552544F535C706F727461626C5A
:102C6000655C525644535C41524D5F434D335C703A
:102C70006F72742E630000004572726F723A257392
:102C80002C25640D0A00000070B506463546002E5E
:102C900035D0083D2C461A4960680968084008B1DB
:102CA000012000E0002028B94FF4A07215A11EA059
:102CB000FEF746FF206808B9012000E0002028B98F
:102CC00040F241120FA118A0FEF73AFF0C496068CC
:102CD0000968084098B1206888B90949606809689E
:102CE0008843606000F0A2F91349606809680844ED
:102CF000114908602046FFF7A7FC00F09FFD70BD5A
:102D0000800000204672656552544F535C706F72AC
:102D10007461626C655C4D656D4D616E675C686584
:102D200061705F342E6300004572726F723A2573D2
:102D30002C25640D0A000000780000200648006879
:102D40004FF47A71B0FBF1F0401E4FF0E021486182
:102D500007200861704700001400002070B5044689
:102D60000025ACB10F48006808B9012000E0002040
:102D700028B940F2CF420CA110A0FEF7E1FE00F00E
:102D800055F900212046FFF74DFA00F057FD0546A2
:102D90003DB94FF080500D490860BFF34F8FBFF32E
:102DA0006F8F70BD680000204672656552544F53A6
:102DB0005C7461736B732E63000000004572726F68
:102DC000723A25732C25640D0A00000004ED00E022
:102DD00070B50546FFF7E0FE15B92D48006800E024
:102DE00028460446201DFFF78DFE78B9E06A00EB07
:102DF0008000284951F8200040B994F82C10012097
:102E0000884025490968814323480160A06A18B1B8
:102E100004F11800FFF776FE20480068401C1F49A7
:102E200008601B480068844209D1211D1C48FFF737
:102E3000A7FE1C480068401C1A49086009E01A48AF
:102E40000068401E184908602046FFF70DFBFFF799
:102E50004BFCFFF7E3FE15480068C0B10C48006862
:102E6000844214D11248006808B9012000E0002013
:102E700028B940F265420FA113A0FEF761FE4FF0A2
:102E8000805015490860BFF34F8FBFF36F8F70BD3F
:102E900030000020D8010020480000205C00002005
:102EA000940400203C000020400000204C00002042
:102EB000680000204672656552544F535C7461731C
:102EC0006B732E63000000004572726F723A2573B7
:102ED0002C25640D0A00000004ED00E001200149EA
:102EE000086070475400002070B504460D462CB9A8
:102EF00040F6063207A10CA0FEF722FE0E4801683C
:102F000018312046FFF722FE01212846FFF78AF9F3
:102F100070BD00004672656552544F535C74617316
:102F20006B732E63000000004572726F723A257356
:102F30002C25640D0A0000003000002010B5044666
:102F40002CB940F6C13205A109A0FEF7F9FD0C48E5
:102F5000006820600B480068606010BD46726565BF
:102F600052544F535C7461736B732E630000000006
:102F70004572726F723A25732C25640D0A000000A9
:102F800058000020440000201CB5184800210B46C2
:102F90008022CDE9001016A1174800F005FB044679
:102FA000012C15D100BF502080F31188BFF34F8F43
:102FB000BFF36F8F00BF4FF0FF3010490860012052
:102FC0000F49086000200F49086000F08BF80BE003
:102FD000601C08B1012000E0002028B940F2847292
:102FE00009A10EA0FEF7ACFD1CBD0000640000208E
:102FF00049444C4500000000F9240008600000200E
:103000004C000020440000204672656552544F5326
:103010005C7461736B732E63000000004572726F05
:10302000723A25732C25640D0A00000002480068DE
:10303000401C0149086070476800002010B51B481B
:10304000006818B101201A4908602DE000201849D5
:10305000086018480068B0FA80F0C0F11F0404EB63
:103060008400154951F8200008B1012000E000203B
:1030700028B940F6F62211A115A0FEF761FD04EB78
:1030800084010D4A02EB810041684968416000F10A
:10309000080142688A4202D141684968416041683A
:1030A000C9680F4A116000BF10BD00006800002011
:1030B0005400002048000020D801002046726565B9
:1030C00052544F535C7461736B732E6300000000A5
:1030D0004572726F723A25732C25640D0A00000048
:1030E000300000201CB52248014609780191FF21DB
:1030F000024611700146097800919DF8001001F018
:1031000050011C4A117007211B4A116009E01A493D
:103110000968491E184A11609DF800104906090EF9
:1031200000919DF8001001F080018029EFD0124934
:1031300009680902104A11601146098801F4E0612A
:1031400011600B4A019911700C48006840F470003E
:103150000A4908600846006840F070400860FFF7C0
:10316000EDFD002006490860FCF7DEFF00201CBDD5
:1031700000E400E0880000208C00002020ED00E04A
:103180008400002010B500BF502080F31188BFF3E9
:103190004F8FBFF36F8F00BF00F046FA18B14FF0AA
:1031A00080500449086000BF002080F3118800BFF0
:1031B00010BD000004ED00E02DE9FF4782B0054698
:1031C0000E461F464FF0000A2C462CB940F2DC4256
:1031D0005AA15FA0FEF7B4FC0EB9206C08B901201B
:1031E00000E0002028B940F2DD4254A158A0FEF7CB
:1031F000A7FC00F009FA08B9049808B9012000E01A
:10320000002028B94FF49C624CA151A0FEF798FC15
:1032100000BFFFF7C1FCD4F83890B9F1000F38D0E7
:10322000D4F80C8031462046FFF7D4F8B7B9A9F19D
:103230000100A063206908B9012000E0002010BB54
:1032400004F1100000F0A0FAE8B14FF080504449BA
:103250000860BFF34F8FBFF36F8F14E0C4F80C808A
:10326000606A08B9012000E0002060B904F1240080
:1032700000F08AFA38B14FF0805039490860BFF346
:103280004F8FBFF36F8FFFF7C9FC012006B0BDE879
:10329000F087049818B9FFF7C1FC0020F6E7BAF1EF
:1032A000000F04D16846FFF749FE4FF0010AFFF70F
:1032B000B5FCFFF7BBFEFFF76FFC94F94400401C20
:1032C00010B9002084F8440094F94500401C10B95E
:1032D000002084F84500FFF7A1FC04A9684600F02F
:1032E00013F9F0B92046FFF7E3F9A0B104F1240087
:1032F0000499FFF7F9FD2046FFF746FA00F09EFA21
:10330000002886D14FF0805015490860BFF34F8FD9
:10331000BFF36F8F7DE72046FFF736FA00F08EFA95
:1033200077E72046FFF730FA00F088FA2046FFF7EB
:10333000BFF90028EED00020A8E7000046726565BE
:1033400052544F535C71756575652E630000000023
:103350004572726F723A25732C25640D0A000000C5
:1033600004ED00E02DE9FF4383B0064688461D4684
:103370004FF0000934462CB940F2D92258A15DA083
:10338000FEF7DEFBB8F1000F01D1206C08B9012077
:1033900000E0002028B940F2DA2251A155A0FEF742
:1033A000CFFB022D02D1E06B012801D1012000E00A
:1033B000002028B940F2DB2249A14EA0FEF7C0FB55
:1033C00000F022F908B9059808B9012000E00020B2
:1033D00028B940F2DE2242A146A0FEF7B1FB00BFB1
:1033E000FFF7DAFBA06BE16B884201D3022D28D1F5
:1033F0002A4641462046FFF702F80746606A08B9A8
:10340000012000E0002068B904F1240000F0BCF9BC
:1034100088B14FF080503B490860BFF34F8FBFF336
:103420006F8F08E03FB14FF0805036490860BFF31E
:103430004F8FBFF36F8FFFF7F1FB012007B0BDE89F
:10344000F083059818B9FFF7E9FB0020F6E7B9F11A
:10345000000F04D101A8FFF771FD4FF00109FFF73C
:10346000DDFBFFF7E3FDFFF797FB94F94400401CF9
:1034700010B9002084F8440094F94500401C10B9AC
:10348000002084F84500FFF7C9FB05A901A800F05A
:103490003BF8F0B92046FFF718F9A0B104F110008D
:1034A0000599FFF721FD2046FFF76EF900F0C6F9F8
:1034B000002895D14FF0805012490860BFF34F8F1C
:1034C000BFF36F8F8CE72046FFF75EF900F0B6F987
:1034D00086E72046FFF758F900F0B0F90020ADE785
:1034E0004672656552544F535C71756575652E6300
:1034F000000000004572726F723A25732C25640D2E
:103500000A00000004ED00E02DE9F04104460D46FC
:103510002CB940F6CB3219A11DA0FEF711FB2DB935
:1035200040F6CC3215A11AA0FEF70AFBFFF734FBD8
:103530001B4807682868401C08B9002619E019498B
:1035400020680968884204D06068B84201D8012622
:103550000FE06068381A2968884209D228686168D3
:10356000791A401A28602046FFF7E8FC002600E0A0
:103570000126FFF753FB3046BDE8F08146726565D2
:1035800052544F535C7461736B732E6300000000E0
:103590004572726F723A25732C25640D0A00000083
:1035A00044000020580000202DE9FF4F85B08046E0
:1035B00089461746DDE912ABB800FFF725F9064644
:1035C00056B14C20FFF720F904460CB1266304E005
:1035D0003046FFF759FB00E000247CB10020CDE924
:1035E00000ABCDE902403A4649464046089BFEF70B
:1035F00097FF2046FEF762FE012501E04FF0FF3500
:10360000284609B0BDE8F08F0549096809B90120CD
:1036100005E00449096809B9022000E0002070476C
:103620004C000020680000202DE9F0414FF0000818
:1036300041480068002872D140480068451C3F4856
:103640000560EDB93E480068006808B9012000E057
:10365000002028B940F6D9123AA13FA0FEF770FA2F
:103660003748076840480068354908603E480760A9
:103670003E480068401C3D490860FFF735F800BF30
:103680003B48006885423CD300BF2D480068006875
:1036900008B9012000E0002020B14FF0FF3034498C
:1036A00008602DE026480068C068C4686668B542B6
:1036B00002D22F48066023E0201DFFF723FAA06AFC
:1036C00018B104F11800FFF71DFA94F82C1001202E
:1036D000884028490968084326490860E16A01EBE7
:1036E0008101254A02EB8100211DFFF749FA234998
:1036F000E06A0968C96A8842C7D34FF00108C4E785
:1037000000BF1E480068C06A00EB80001A4951F8EB
:103710002000012801D94FF0010805E0FFE7184813
:103720000068401C164908601648006808B14FF050
:1037300001084046BDE8F0816800002044000020F8
:10374000340000204672656552544F535C746173B7
:103750006B732E63000000004572726F723A25731E
:103760002C25640D0A0000003800002058000020BD
:103770006000002048000020D80100203000002018
:10378000500000205400002070B50646F068C46860
:103790002CB940F661321AA11EA0FEF7D1F904F14E
:1037A0001800FFF7AFF91F480068A8B9201DFFF700
:1037B000A9F994F82C10012088401B490968084396
:1037C00019490860E16A01EB8101184A02EB8100A6
:1037D000211DFFF7D5F904E004F118011448FFF7A3
:1037E000CFF91449E06A0968C96A884204D90125F9
:1037F00001201149086000E00025284670BD000046
:103800004672656552544F535C7461736B732E63DB
:10381000000000004572726F723A25732C25640D0A
:103820000A0000006800002048000020D8010020A5
:1038300080040020300000205400002070B50024D7
:1038400000263448006828B94FF4FD6232A137A041
:10385000FEF776F9FFF7A0F92E480068401E2D49C3
:1038600008600846006800284FD1344800680028E6
:103870004BD024E03248C068C46804F11800FFF758
:1038800041F9201DFFF73EF994F82C1001208840E3
:103890002C49096808432B490860E16A01EB810162
:1038A000294A02EB8100211DFFF76AF92749E06AE6
:1038B0000968C96A884202D3012025490860204866
:1038C000006808B9012000E000200028D2D00CB127
:1038D000FEF70AFF1F48056865B100BFFFF7A4FEA9
:1038E00010B101201A4908606D1E002DF6D100208C
:1038F000184908601648006838B101263007164993
:103900000860BFF34F8FBFF36F8FFFF787F9304623
:1039100070BD0000680000204672656552544F5328
:103920005C7461736B732E63000000004572726FEC
:10393000723A25732C25640D0A0000004000002017
:103940008004002048000020D80100203000002022
:10395000540000205000002004ED00E000010203AC
:103960000405060708090A0B0C0D0E0FB400961E7D
:103970003C3CAF008228466E3C28AF008C143C5A79
:10398000645F91143C5A5A55376E1E64AC39000876
:103990000000002010010000601B0008BC3A000875
:1039A00010010020C04B0000701B00080000000048
:1039B00001020304010203040607080902040608C1
:1039C00000A24A04000000000000000001020304FD
:1039D00006070809000000000000000000000000C9
:1039E00000000000000000000000000000000000D7
:1039F00000000000000000000000000000000000C7
:103A000000000000000000000000000000000000B6
:103A100000000000000000000000000000000000A6
:103A20000000000000000000000000000000000096
:103A3000AAAAAAAA000000000000000000000000DE
:103A40001E96E2F61E14E2EC001E00EC00140F0DB0
:103A5000080A03051E0AE2EC1E1400E2001400EC42
:103A60000E0C090B02040F0D0E0C090B080A0305BE
:103A70000204E2F61E0AE2EC1E14E2EC1E14001E22
:103A800000E2001400EC001400EC070F090103062B
:103A90000E0800020000000000000000000000000E
:103AA0000000000000000000000000000000000016
:0C3AB0000000000000000000000000000A
:04000005080000ED02
:00000001FF
